:020000040800F2
:100000003807002089010008E9150008F9130008E5
:10001000C11500088F020008D91600080000000072
:10002000000000000000000000000000ED150008C6
:100030009D02000800000000EB15000821160008D2
:10004000A3010008A3010008A3010008A301000800
:10005000A3010008A3010008A3010008A3010008F0
:10006000A3010008A3010008A3010008A3010008E0
:10007000A3010008A3010008A3010008A3010008D0
:10008000A3010008A3010008A3010008A3010008C0
:100090008516000891020008A3010008A3010008CA
:1000A000A3010008A3010008A3010008A3010008A0
:1000B000A3010008A3010008A3010008A301000890
:1000C000A3010008A3010008A3010008A301000880
:1000D000A3010008A3010008A3010008A301000870
:1000E000A3010008A3010008A301000800F002F822
:1000F00000F03AF80AA090E8000C82448344AAF188
:100100000107DA4501D100F02FF8AFF2090EBAE885
:100110000F0013F0010F18BFFB1A43F0010318473B
:10012000A0160000C0160000103A24BF78C878C19D
:10013000FAD8520724BF30C830C144BF04680C60ED
:10014000704700000023002400250026103A28BF35
:1001500078C1FBD8520728BF30C148BF0B60704739
:100160001FB51FBD10B510BD00F058F81146FFF7C0
:10017000F7FF01F0C3FA00F076F803B4FFF7F2FFDF
:1001800003BC00F07DF8000009488047094800479B
:10019000FEE7FEE7FEE7FEE7FEE7FEE7FEE7FEE737
:1001A000FEE7FEE704480549054A064B7047000094
:1001B00083160008ED0000083801002038070020F1
:1001C00038030020380300204FF0000200B513462A
:1001D00094469646203922BFA0E80C50A0E80C5067
:1001E000B1F12001BFF4F7AF090728BFA0E80C5018
:1001F00048BF0CC05DF804EB890028BF40F8042B11
:1002000008BF704748BF20F8022B11F0804F18BF7D
:1002100000F8012B7047704770477047754600F033
:100220002BF8AE4605006946534620F00700854688
:1002300018B020B5FFF7B6FFBDE820404FF000062C
:100240004FF000074FF000084FF0000B21F00701BE
:10025000AC46ACE8C009ACE8C009ACE8C009ACE801
:10026000C0098D46704710B50446AFF300802046A4
:10027000BDE81040FFF781BF00487047D400002060
:1002800001491820ABBEFEE7260002007047FEE7DA
:10029000014800F073B9000058000020704772B6A2
:1002A000FEE790F82020012A07D0022A05D0416AF3
:1002B00041F48021416201207047006842690A438D
:1002C000426100207047F0B590F820500468A4689F
:1002D000012D05D0022D03D0416A41F480215DE05B
:1002E00014F0406F01D1E50055D5C4F30164022C30
:1002F00003D9416A41F4000150E00125A5401D6089
:100300008D684FF4C0739DB1CE6835434E6845EAA1
:10031000C605066803EB0417F5514FF4C27507686C
:1003200005EB04150E697E51097D012905D009E010
:100330000E88CD6845EA4655EBE701684E5946F40C
:1003400080764E511179D579567941EA05619579D2
:100350002D0445EA062529434FF4C676056806EBC9
:100360000416A9511178D57841EA0561957852783B
:100370002D0445EA022211434FF4C475026805EBCF
:1003800004155151006803EB0411425842F0010278
:1003900042500020F0BD416A41F400114162012049
:1003A000F0BD000010B590F820300268012B07D096
:1003B000022B05D0416A41F480214162012010BD29
:1003C000D2F8000240F00100C2F80002087D00F0FF
:1003D0001F0301209840D2F81C328343C2F81C321C
:1003E000CB69B3B9D2F80C328343C2F80C328C8992
:1003F0004B6864F31F434C6902EBC404C4F84032F9
:100400000C890B6864F31F434C6902EBC404C4F805
:100410004432CB69012B16D1D2F80C320343C2F817
:100420000C320C884B6864F31F434C6902EBC40424
:10043000C4F840320C89CB6864F31F434C6902EB6B
:10044000C404C4F844328B69002BD2F804320FD0B4
:1004500053EA0003C2F804320B69002BD2F81432BD
:1004600008D00343C2F81432096A012904D008E015
:100470008343EFE78343F5E7D2F81C120143C2F848
:100480001C12D2F8000220F00100C2F80002002085
:1004900010BD704730B590F82040012C05D0022CDB
:1004A00003D0416A41F480215DE00468002955D001
:1004B0002469A40754D04FF4D874056804EB0114E0
:1004C0002D5915F00405956005682D594ED0ED089D
:1004D000556005682C5904F00204D4604FF4DA74B6
:1004E000056804EB01142D5905F00F051561056829
:1004F0002D59C5F30725956105682C59240C5461C5
:100500004FF4DC72046802EB0112A4581C700468FA
:10051000A458240A5C700468A458240C9C700468D5
:10052000A258120EDA704FF4DE72046802EB011268
:10053000A4581C710468A458240A5C710468A45867
:10054000240C9C710468A258120EDA71006881B103
:10055000016941F020010161002030BDE468A8E795
:10056000416A41F400114162012030BD6D0D1560FA
:10057000AFE7C16841F02001C160EDE72DE9F05F10
:100580000546006800244669D0F804908768D0F8D2
:100590000CB0D0F810A0D0F81880F10748D0F907B7
:1005A00014D001218160B80703D5284600F001FA74
:1005B0000CE0780702D54FF4006407E0380702D555
:1005C0004FF4805402E0284600F0F2F9F80516D501
:1005D00029684FF480708860B80503D5284600F07C
:1005E000EAF90CE0780502D544F4005407E0380538
:1005F00002D544F4804402E0284600F0DBF9F80319
:1006000016D529684FF480308860B80303D5284692
:1006100000F0D3F90CE0780302D544F4004407E07D
:10062000380302D544F4803402E0284600F0C4F9CF
:10063000300707D55FEACB6004D52968102044F461
:100640000074C86070074FF0080707D55FEA0B70A9
:1006500004D52868C760284600F066F9B00706D5BB
:100660002868C068800702D0284600F05FF970064D
:1006700007D55FEACA6004D52968102044F4806475
:100680000861B00607D55FEA0A7004D528680761DB
:10069000284600F05DF9F00606D528680069800755
:1006A00002D0284600F055F9B00308D55FEAC960CA
:1006B00005D5296810204860284600F04BF9F00362
:1006C00007D55FEA097004D528684760284600F01E
:1006D00075F9300446D55FEA497040D5F00504D578
:1006E0005FEAC87001D044F00104B00504D55FEAA8
:1006F000887001D544F00204700504D55FEA4870A3
:1007000001D544F00404300529D518F0700F26D027
:1007100008F07000402815D006DC102809D02028E9
:100720000AD0302816D10AE050280ED0602811D106
:100730000EE044F008040DE044F010040AE044F038
:10074000200407E044F0400404E044F0800401E0A9
:1007500044F480742868816921F0700181612968FE
:1007600004204860002C05D0686A2043686228464F
:10077000FFF78FFEBDE8F09F70B5040003D094F83A
:10078000200010B104E0012070BD204600F082F886
:100790002068016841F00101016000F01DFA054682
:1007A000052604E000F018FA401B0A2811D820683A
:1007B0004068C007F6D02068016821F0020101609E
:1007C00000F00AFA05460BE000F006FA401B0A2882
:1007D00006D9606A40F40030606284F82060D2E795
:1007E000206840688007EFD4207E012820680168D7
:1007F0003DD021F080010160607E01282068016801
:1008000038D021F040010160A07E012820680168F5
:1008100033D021F020010160E07E012820680168CA
:100820002ED041F010010160207F0128206801686E
:1008300029D021F008010160607F0128206801684B
:1008400024D021F004010160D4E902010843D4E975
:100850000412114308436168491E08432168C861B6
:1008600000206062012084F82000002070BD41F06B
:100870008001C0E741F04001C5E741F02001CAE72F
:1008800021F01001CFE741F00801D4E741F0040165
:10089000D9E7000010B586B00021009101910291C6
:1008A000039100681C49884233D11C48C16941F05A
:1008B0000071C161C16901F000710491816941F069
:1008C000080181618069164C00F0080004904FF423
:1008D000807000906946204600F084F86015009012
:1008E00002200190032003906946204600F07AF828
:1008F0000C48416821F4C04141F0E06141F480417D
:10090000416000221146142000F0C4FA142000F0C7
:10091000B3FA06B010BD00000064004000100240B1
:10092000000C014000000140704700000549064AE4
:100930000968914205D1034A044B1C3A0021FFF794
:10094000A9BD704758000020006400400C00002042
:10095000704770477047000070B5044690F820005B
:10096000012804D0606A40F40020606218E0022090
:1009700084F820002068016821F00101016000F086
:100980002BF905460EE000BF00F026F9401B0A28AF
:1009900008D9606A40F400306062052084F82000C5
:1009A000012070BD20684068C007EDD1606270BD55
:1009B0007047704770477047704770477047000036
:1009C00070B5044600F008F90546601C02D00448E2
:1009D0000078044400F000F9401BA042FAD370BD37
:1009E000140000202DE9F84FDFF8B891002409F138
:1009F000040A0AF1040B23460F270BF1040EC9E089
:100A00000125A5402A40AA427DD1674ED1F804C0F5
:100A1000ACEB0608B44532D014DCBCF1030F3AD07D
:100A200009DCBCF1000F2AD0BCF1010F1CD0BCF1D5
:100A3000020F31D11DE0BCF1110F17D0BCF1120F24
:100A40002AD119E0B8F5881F19D006DCB8F5803F27
:100A500015D0B8F5801F1FD111E0B8F5001F0ED0DA
:100A6000B8F5041F18D10AE0CB6815E0CB681B1D50
:100A700012E0CB6808330FE0CB680C330CE08B68D6
:100A80002BB1012B4FF0080303D0456104E0042390
:100A900002E0056100E00023FF2A01D8064601E0DC
:100AA00000F104064FEA840501D9A5F12005D6F826
:100AB000008007FA05FC28EA0C0803FA05F548EA65
:100AC0000508C6F800804D68ED0062D5374DAE6967
:100AD00046F00106AE61AD6924F0030605F001059C
:100AE0000095334D06EB050CDCF80850A607360FD1
:100AF00007FA06F825EA0805DFF8B880404503D173
:100B00004FF0000817E044E0DFF8AC80404502D128
:100B10004FF001080FE0DFF8A480404502D14FF00C
:100B2000020808E0DFF89880404502D14FF0030842
:100B300001E04FF0040808FA06F848EA0508CCF886
:100B400008804D68D9F80060ED034D4601D5164385
:100B500000E096432E604D68DAF80060AD0355461C
:100B600001D5164300E096432E604D68DBF8006027
:100B7000ED025D4601D5164300E096432E604D68B8
:100B8000DEF80060AD02754601D5164300E09643DD
:100B90002E60641C0D682A46E5407FF431AFBDE845
:100BA000F88F000000040140000011100010024006
:100BB0000000014000080140000C0140001001400D
:100BC000001401408068084000D0012070470AB13D
:100BD000016170470904FBE7014880687047000025
:100BE0001400002070B5040025D094F83D000025C5
:100BF00020B984F83C50204600F0B8F8242084F84E
:100C00003D002068016821F0010101602068016851
:100C100041F4004101602068016821F40041016055
:100C200000F000FA4D4A6168914201D84C4900E059
:100C30004C49884201D2012070BD4B492368B0FB6A
:100C4000F1F15E6826F03F060E435E6063689342F2
:100C500006D94FF4967359434FF47A73B1FBF3F10D
:100C60002368491C1E6A26F03F06314319626168F9
:100C7000914210D84900401EB0FBF1F2521CC2F361
:100C80000B02042A01D2042022E0B0FBF1F0401C48
:100C9000C0F30B001CE0A268F2B301EBC10303EB4D
:100CA0000116431EB3FBF6F35B1C43F480431B05A4
:100CB00049D092B301EBC10202EB0111401EB0FB1F
:100CC000F1F0401CC0F30B0040F4804040F40040C1
:100CD0002168CA694CF6FF739A431043C861D4E98E
:100CE000071001432068026822F0C002114301602E
:100CF000D4E9030101432068826848F2FF339A4334
:100D000011438160D4E9050108432168CA6822F0D3
:100D1000FF021043C86001E00EE016E020680168A1
:100D200041F0010101602564202084F83D00256325
:100D300084F83E50002070BD01EB4106431EB3FB1A
:100D4000F6F35B1CB3E70120C2E701EB4101401E53
:100D5000B0FBF1F0401CC0F30B00B7E7A086010028
:100D600080841E0000093D0040420F0010B586B08F
:100D70000021009101910291039100680F4988427E
:100D80001AD10F4CA06940F00800A061A069694623
:100D900000F008000490C020009012200190032071
:100DA00003900848FFF71EFEE06940F40010E06180
:100DB000E06900F40010049006B010BD005400403B
:100DC00000100240000C0140024881680278114482
:100DD0008160704714000020074810B5016841F099
:100DE00010010160032000F075F80F2000F006F8F4
:100DF00000F024F8002010BD0020024070B50D4D19
:100E000004464FF47A712878B1FBF0F00A4909687A
:100E1000B1FBF0F000F0DCFA48B9102C07D2002248
:100E20002146501E00F036F800206C6070BD012095
:100E300070BD000014000020200000200C4808B500
:100E4000816941F001018161816901F00101009135
:100E5000C16941F08051C161C06900F080500090CB
:100E60000448416821F0E06141F00071416008BD33
:100E70000010024000000140002809DB00F01F02C2
:100E8000012191404009800000F1E020C0F80011EC
:100E900070470000F0B40E4B1B680C46C3F30223EE
:100EA000C3F10705042D00D90425191D072901D216
:100EB000002300E0DB1E012606FA05F1491E214051
:100EC00099409E40761E16403143F0BC00F005BCB0
:100ED0000CED00E0064900F0070208684FF6FF033A
:100EE000184040EA0220034A10430860704700009F
:100EF0000CED00E00000FA052DE9F0470F46050073
:100F000061D0434E306800F00700B84209D2306823
:100F100020F0070038433060306800F00700B84226
:100F200051D128683B4C810712D5400703D5606832
:100F300040F4E06060602878000703D5606840F402
:100F4000605060606068A96820F0F000084360604D
:100F50002878C00728D06868012810D021680228A6
:100F600010D0890700292EDA616821F003010143BE
:100F70006160FFF731FE804641F288390DE021685B
:100F80008903EFE78901EDE7FFF726FEA0EB0801F3
:100F9000494502D90320BDE8F0876068696800F020
:100FA0000C00B0EB810FEFD1306800F00700B842C1
:100FB0000BD9306820F0070038433060306800F00B
:100FC0000700B84201D00120E5E72878400705D5A1
:100FD0006068E96820F4E0600843606028780007F2
:100FE00006D56068296920F4605040EAC10060605D
:100FF00000F028F86168084AC1F30311515CC84049
:101000000649086006480068FFF7F8FE0020C2E7BE
:101010000020024000100240A81700082000002015
:10102000180000200448054900684968044AC1F3D3
:101030000221515CC840704720000020001002408F
:10104000B817000812A185B00FC98DE80F0014A0D1
:10105000144A006804905168134801F00C03042BF3
:1010600010D0082B0ED1C1F38343C9031DF8030030
:101070000AD5516804AAC1F34041515C0A4A504361
:10108000B0FBF1F005B0704708494843FAE70000AB
:1010900002030405060708090A0B0C0D0E0F1010B9
:1010A000010200000010024000127A0000093D0019
:1010B0002DE9F84F040070D02078C04DC00749D00A
:1010C0006868C0F38100012807D06868C0F3810018
:1010D000022809D16868C00306D52868800339D57D
:1010E00060680028E7D035E06068B0F5803F0BD03D
:1010F00010B1B0F5A02F11D0286820F480302860FE
:10110000286820F4802002E0286840F480302860BD
:10111000606890B1FFF760FD06460AE0286840F479
:1011200080202860F0E700BFFFF756FD801B642891
:1011300073D828688003F7D50CE0FFF74DFD06460D
:1011400005E000BFFFF748FD801B6428F0D8286841
:101150008003F7D420789A4E80074FF001094FF0B2
:10116000000839D5686810F00C0F07D06868C0F324
:101170008100022809D16868C00306D42868800766
:1011800014D52069012808D110E02069B0B1C6F853
:101190000090FFF721FD074605E00AE1FFF71CFD7F
:1011A000C01B0228C4D828688007F7D52868616961
:1011B00020F0F80040EAC10028600DE0C6F8008089
:1011C000FFF70AFD074604E0FFF706FDC01B0228F3
:1011D00023D828688007F7D4207800072CD57948D1
:1011E000A169D9B1C0F80090FFF7F6FC074604E00A
:1011F000FFF7F2FCC01B02280FD8686A8007F7D5FA
:1012000071484FF4FA510068B0FBF1F0009000BF54
:101210000098411E0091FAD20EE080E0C0F80080F4
:10122000FFF7DAFC074604E0FFF7D6FCC01B0228F4
:1012300075D8686A8007F7D42078400760D5E869D8
:101240000027C00008D4E86940F08050E861E869F0
:10125000012700F0805000905C480168C90513D454
:101260000168834641F480710160FFF7B5FC824656
:1012700006E000BFFFF7B0FCA0EB0A0064284ED8E0
:10128000DBF80000C005F5D5E06801280AD008B1F8
:10129000052813D0286A20F001002862286A20F06F
:1012A000040002E0286A40F001002862E06841F290
:1012B000883B98B1FFF790FC82460BE0286A40F02B
:1012C00004002862EEE700BFFFF786FCA0EB0A01EE
:1012D00059455AD8286A8007F6D50CE0FFF77CFC00
:1012E000824605E0FFF778FCA0EB0A0159454CD88F
:1012F000286A8007F6D41FB1E86920F08050E861C1
:10130000E06988B36968C1F38101022944D00228E9
:10131000C6F8608004D0FFF75FFC044638E034E094
:10132000FFF75AFC074604E0FFF756FCC01B0228F3
:101330002BD828688001F7D4206AB0F5803F05D10A
:101340006868A16820F4003008436860D4E90801A7
:101350000843696821F4741108436860C6F8609016
:10136000FFF73AFC044606E025E000BFFFF734FC37
:10137000001B022809D828688001F7D51BE000BFB0
:10138000FFF72AFC001B022802D90320BDE8F88FD2
:1013900028688001F4D40EE00128F7D06868226A3A
:1013A00000F48031914204D1616A00F470108842E7
:1013B00001D00120EAE70020E8E700000010024029
:1013C00000004242800442422000002000700040A1
:1013D00010B5401EB0F1807F01D3012010BD4FF049
:1013E000E02460610F21601700F077F90020A06110
:1013F00007202061002010BDFEE7000010B5114C51
:101400004FF480512046FFF7DDFB90B16114204678
:10141000FFF7D8FB78B14FF480412046FFF7D2FBAD
:1014200058B14FF400412046FFF7CCFB38B1002003
:1014300010BD012010BD022010BD032010BD0420EE
:1014400010BD0000000C014030B51D488BB01B4999
:10145000016008210024C0E901144905C1604FF46E
:10146000A02101614FF480114161047644768476B5
:10147000C476012505774477FFF77EF900B1FEE7D2
:10148000CDE90554029403940094019407956946AC
:101490000B4808950494FEF785FF00B1FEE7084865
:1014A000FFF75AFA00B1FEE702210548FEF7F9FE00
:1014B000002800D0FEE70BB030BD00000064004003
:1014C000580000202DE9F04186B0002429480094FE
:1014D000019402940394816941F010018161816952
:1014E00001F010010491816941F02001816181695D
:1014F00001F020010491816941F008018161816955
:1015000001F008010491816941F004018161806961
:10151000194F00F004004FF4404504900022294682
:101520003846FFF754FBDFF854800022182140466C
:10153000FFF74DFB0095022601250396CDE90154E6
:1015400069463846FFF74EFA4FF47040CDE9000483
:10155000694640460294FFF745FA1820CDE9000598
:10156000CDE9024669464046FFF73CFA06B0BDE8C1
:10157000F08100000010024000100140000C01400A
:101580000D4810B50B4901600C49416000214FF432
:1015900080428160C0E9031241618161C1610162E1
:1015A000FFF720FB002803D0BDE81040FEF777BE10
:1015B00010BD00000054004080000020A086010003
:1015C000FEE700000020064902460A54401C80B293
:1015D0000828FAD303494FF48270086000F058B825
:1015E0000400002024000020FEE770477047000040
:1015F00030B40022084B14469C54521C92B2082A64
:10160000FAD3020A5C1804F8012C5854034932201A
:10161000086030BC00F03CB804000020240000202A
:10162000FFF7D2BB30B58FB028216846FEF7CCFD5E
:1016300014210AA8FEF7C8FD01210804CDE9001015
:101640000024029402250491CDE907504FF4E010E4
:1016500009906846FFF72CFD08B172B6FEE70F202F
:10166000CDE90A054FF48060CDE90C4002210AA8BB
:101670000E94FFF741FC002801D072B6FEE70FB0D0
:1016800030BD70470148FEF779BF000058000020C8
:101690000F4810B500214160C160082202618160DD
:1016A00001754FF47A70FFF78BF90A4B08491A1D40
:1016B00001F13400FEF707FE00B1FEE70A20FFF754
:1016C0007FF90449091D0878401C087010BD00000E
:1016D0002400002000000020FEE70907090E002872
:1016E00004DB00F1E02080F80014704700F00F00E8
:1016F00000F1E02080F8141D70470000FFF76CFB3C
:10170000FFF790FFFFF7DEFEFFF79EFEFFF738FFC3
:101710000024FFF757FF224E224D4FF480474FF42D
:101720000048012208212846FFF751FA0122102122
:101730002846FFF74CFA012239463046FFF747FAB0
:10174000012241463046FFF742FAFFF757FE0128D3
:1017500010D0022815D003281BD00428E1D1002284
:1017600008212846FFF733FA002420460121FFF71D
:101770003FFFD6E7002239463046FFF728FA641CBF
:1017800005E0002241463046FFF721FA641E24B2EC
:10179000C7E7002210212846FFF719FAA0B2E5E7B3
:1017A00000100140000C014000000000000000009B
:1017B00001020304060708090000000001020304F7
:1017C000E0170008000000202400000028010008A5
:1017D0000418000824000020140700004401000839
:1017E00000000000000000000000000000000000F9
:1017F00000000000010000001000000000000000D8
:041800000024F400CC
:04000005080000ED02
:00000001FF
